:020000040800F2
:10000000380700208901000827160008A7120008F9
:10001000251600088F02000867170008000000007E
:100020000000000000000000000000002B16000887
:100030004505000800000000291600082D160008DC
:10004000A3010008A3010008A3010008A301000800
:10005000A3010008A3010008A3010008A3010008F0
:10006000A3010008A3010008A3010008A3010008E0
:10007000A3010008A3010008A3010008A3010008D0
:10008000A3010008A3010008A3010008A3010008C0
:10009000A3010008A3010008A3010008A3010008B0
:1000A000A3010008A3010008A3010008A3010008A0
:1000B000A3010008A3010008A3010008A301000890
:1000C000A3010008A3010008A3010008A301000880
:1000D000A3010008A3010008A3010008A301000870
:1000E000A3010008A3010008A301000800F002F822
:1000F00000F03AF80AA090E8000C82448344AAF188
:100100000107DA4501D100F02FF8AFF2090EBAE885
:100110000F0013F0010F18BFFB1A43F0010318473B
:1001200098200000B8200000103A24BF78C878C199
:10013000FAD8520724BF30C830C144BF04680C60ED
:10014000704700000023002400250026103A28BF35
:1001500078C1FBD8520728BF30C148BF0B60704739
:100160001FB51FBD10B510BD00F058F81146FFF7C0
:10017000F7FF01F009FB00F076F803B4FFF7F2FF98
:1001800003BC00F07DF8000009488047094800479B
:10019000FEE7FEE7FEE7FEE7FEE7FEE7FEE7FEE737
:1001A000FEE7FEE704480549054A064B7047000094
:1001B0008F160008ED0000083801002038070020E5
:1001C00038030020380300204FF0000200B513462A
:1001D00094469646203922BFA0E80C50A0E80C5067
:1001E000B1F12001BFF4F7AF090728BFA0E80C5018
:1001F00048BF0CC05DF804EB890028BF40F8042B11
:1002000008BF704748BF20F8022B11F0804F18BF7D
:1002100000F8012B7047704770477047754600F033
:100220002BF8AE4605006946534620F00700854688
:1002300018B020B5FFF7B6FFBDE820404FF000062C
:100240004FF000074FF000084FF0000B21F00701BE
:10025000AC46ACE8C009ACE8C009ACE8C009ACE801
:10026000C0098D46704710B50446AFF300802046A4
:10027000BDE81040FFF781BF00487047D400002060
:1002800001491820ABBEFEE7260002007047FEE7DA
:1002900010B504460298216022716371A071282074
:1002A000A0720620E0710C202072142060720820D9
:1002B000E072322000F04AF900223321204600F09B
:1002C00069F800223321204600F064F8052000F090
:1002D0003DF900223221204600F05CF8052000F0B4
:1002E00035F900222021204600F054F8052000F0C6
:1002F0002DF9E1790022204600F04CF8217A002205
:10030000204600F047F8617A0022204600F042F8CB
:10031000A17A0022204600F03DF80022012120466B
:1003200000F038F820460022BDE81040022100F01D
:1003300031B830B4447900238C4201D8641EE1B254
:100340008479944201D8641EE2B232B1012A06D007
:10035000022A06D0032A06D007E00B4605E040310A
:1003600002E0143100E05431CBB230BC43F08001E4
:10037000002200F00FB8012200F00CB870B50C4656
:10038000054603E02846641CFFF7F5FF21780029A5
:10039000F8D170BD7CB506460807040EF07A01F06E
:1003A000F00518B145F0080544F00804012A01D011
:1003B0002AB108E045F0010544F0010403E025F00E
:1003C000010524F0010445F004008DF8040001202B
:1003D00000F0BCF88DF8055044F004008DF80600DC
:1003E000012000F0B3F84FF47A708DF807400090C8
:1003F0003179042301AA306800F07EFA7CBD000048
:100400002DE9F04700254FF0010A4FF40079DFF89D
:100410008480214C00F0A6F9606100F0A3F94F46FA
:10042000A06102E000F09EF9A0613946404600F06C
:100430008FF920B9D4E90501801C8842F2D8282020
:1004400001F036FAB94639464746404600F080F991
:100450000028C5F107010AFA01F019D03043C6B2ED
:1004600000F080F9C4F8140000F07CF9A06149465E
:10047000384600F06DF920B1D4E90501801C8842AE
:10048000F2D86D1CEDB2082DC4D33046BDE8F0871C
:100490008643E5E7000C0140000000202DE9FF4104
:1004A000002502204FF400744FF00108CDE90250FE
:1004B000224ECDE900482F466946304600F058F8F4
:1004C00000222146304600F048F9142000F03EF8A2
:1004D00001222146304600F040F91E2001F0E8F9E3
:1004E000CDE901786946304600F042F8282001F055
:1004F000DFF92146304600F02BF940B9502001F0D9
:10050000D7F92146304600F023F900B1012500F06B
:1005100029F90B4FC7F8140000F024F9B8612146FF
:10052000304600F015F920B1D7E90501801C88425A
:10053000F2D804B02846BDE8F0810000000C01406C
:1005400000000020704772B6FEE7000070B5044658
:1005500000F008F90546601C02D004480078044405
:1005600000F000F9401BA042FAD370BD1C0000202F
:100570002DE9F84FDFF8B891002409F1040A0AF1D7
:10058000040B23460F270BF1040EC9E00125A540FB
:100590002A40AA427DD1674ED1F804C0ACEB0608D0
:1005A000B44532D014DCBCF1030F3AD009DCBCF105
:1005B000000F2AD0BCF1010F1CD0BCF1020F31D1C9
:1005C0001DE0BCF1110F17D0BCF1120F2AD119E0B8
:1005D000B8F5881F19D006DCB8F5803F15D0B8F5FE
:1005E000801F1FD111E0B8F5001F0ED0B8F5041F11
:1005F00018D10AE0CB6815E0CB681B1D12E0CB6870
:1006000008330FE0CB680C330CE08B682BB1012B67
:100610004FF0080303D0456104E0042302E00561C4
:1006200000E00023FF2A01D8064601E000F104069D
:100630004FEA840501D9A5F12005D6F8008007FA14
:1006400005FC28EA0C0803FA05F548EA0508C6F88F
:1006500000804D68ED0062D5374DAE6946F0010669
:10066000AE61AD6924F0030605F001050095334D38
:1006700006EB050CDCF80850A607360F07FA06F85B
:1006800025EA0805DFF8B880404503D14FF000089F
:1006900017E044E0DFF8AC80404502D14FF001089C
:1006A0000FE0DFF8A480404502D14FF0020808E0D7
:1006B000DFF89880404502D14FF0030801E04FF089
:1006C000040808FA06F848EA0508CCF808804D68DE
:1006D000D9F80060ED034D4601D5164300E096437E
:1006E0002E604D68DAF80060AD03554601D516431B
:1006F00000E096432E604D68DBF80060ED025D4639
:1007000001D5164300E096432E604D68DEF8006088
:10071000AD02754601D5164300E096432E60641C79
:100720000D682A46E5407FF431AFBDE8F88F000040
:1007300000040140000011100010024000000140C0
:1007400000080140000C014000100140001401406D
:100750008068084000D0012070470AB101617047ED
:100760000904FBE701488068704700001C00002076
:1007700070B5040025D094F83D00002520B984F818
:100780003C50204600F04EF9242084F83D002068BB
:10079000016821F0010101602068016841F4004115
:1007A00001602068016821F40041016000F088FACE
:1007B0004D4A6168914201D84C4900E04C49884259
:1007C00001D2012070BD4B492368B0FBF1F15E6896
:1007D00026F03F060E435E606368934206D94FF4ED
:1007E000967359434FF47A73B1FBF3F12368491CB4
:1007F0001E6A26F03F06314319626168914210D8A3
:100800004900401EB0FBF1F2521CC2F30B02042A55
:1008100001D2042022E0B0FBF1F0401CC0F30B0039
:100820001CE0A268F2B301EBC10303EB0116431E07
:10083000B3FBF6F35B1C43F480431B0549D092B332
:1008400001EBC10202EB0111401EB0FBF1F0401CB4
:10085000C0F30B0040F4804040F400402168CA69B6
:100860004CF6FF739A431043C861D4E90710014363
:100870002068026822F0C00211430160D4E903013C
:1008800001432068826848F2FF339A431143816034
:10089000D4E9050108432168CA6822F0FF02104329
:1008A000C86001E00EE016E02068016841F0010137
:1008B00001602564202084F83D00256384F83E50C3
:1008C000002070BD01EB4106431EB3FBF6F35B1C39
:1008D000B3E70120C2E701EB4101401EB0FBF1F09C
:1008E000401CC0F30B00B7E7A086010080841E0007
:1008F00000093D0040420F002DE9F84F1F46904689
:100900008A460446DDF82890FFF72CFF054694F848
:100910003D0020287FD1192301224049204600951F
:1009200000F04EFD002876D194F83C00012872D0EA
:10093000012084F83C0020680168C90703D10168E0
:1009400041F0010101602068016821F4006101604B
:10095000212084F83D00102084F83E000026266403
:10096000C4F824806785608D20852D48E0622B4681
:100970004A465146204600F0AFFC90B920684169D4
:100980008069009036E02A464946204600F097FDEF
:1009900050B1206C042804D12068016841F4007132
:1009A00001600120BDE8F88F606A21680078086165
:1009B000606A401C6062618D491E6185218D491EFF
:1009C00089B2218522685369DB435B070BD451B19F
:1009D00000781061606A401C6062608D401E608516
:1009E000208D401E20852A464946204600F0C2FC44
:1009F0000028CED1208D0028C5D154F83D0B0168C8
:100A000041F400710160202004F81E09E677667742
:100A10000020C7E7FFE70220C4E700000200100043
:100A20000000FFFF10B586B00021009101910291F6
:100A3000039100680F4988421AD10F4CA06940F019
:100A40000800A061A069694600F008000490C02079
:100A5000009012200190032003900848FFF788FDC2
:100A6000E06940F40010E061E06900F400100490D7
:100A700006B010BD0054004000100240000C0140C0
:100A80000248816802781144816070471C00002090
:100A9000074810B5016841F010010160032000F023
:100AA00067F80F2000F006F800F024F8002010BDD1
:100AB0000020024070B50D4D04464FF47A7128783D
:100AC000B1FBF0F00A490968B1FBF0F000F0CEFA92
:100AD00048B9102C07D200222146501E00F028F8F9
:100AE00000206C6070BD012070BD00001C00002063
:100AF000280000200C4808B5816941F0010181619E
:100B0000816901F001010091C16941F08051C16129
:100B1000C06900F0805000900448416821F0E06115
:100B200041F00071416008BD00100240000001402A
:100B3000F0B40E4B1B680C46C3F30223C3F1070548
:100B4000042D00D90425191D072901D2002300E036
:100B5000DB1E012606FA05F1491E214099409E4000
:100B6000761E16403143F0BC00F0FEBD0CED00E0F7
:100B7000064900F0070208684FF6FF03184040EAF4
:100B80000220034A10430860704700000CED00E0AB
:100B90000000FA052DE9F0470F46050061D0434EED
:100BA000306800F00700B84209D2306820F0070032
:100BB00038433060306800F00700B84251D12868EF
:100BC0003B4C810712D5400703D5606840F4E060D4
:100BD00060602878000703D5606840F4605060606A
:100BE0006068A96820F0F000084360602878C007BA
:100BF00028D06868012810D02168022810D0890701
:100C000000292EDA616821F0030101436160FFF7DA
:100C1000A9FD804641F288390DE021688903EFE79C
:100C20008901EDE7FFF79EFDA0EB0801494502D9D8
:100C30000320BDE8F0876068696800F00C00B0EB45
:100C4000810FEFD1306800F00700B8420BD930684F
:100C500020F0070038433060306800F00700B842E9
:100C600001D00120E5E72878400705D56068E968EC
:100C700020F4E060084360602878000706D56068CB
:100C8000296920F4605040EAC100606000F028F853
:100C90006168084AC1F30311515CC8400649086005
:100CA00006480068FFF706FF0020C2E70020024068
:100CB000001002409E210008280000202000002093
:100CC0000448054900684968044AC1F30221515C9F
:100CD000C84070472800002000100240AE210008E4
:100CE00012A185B00FC98DE80F0014A0144A006846
:100CF00004905168134801F00C03042B10D0082B0A
:100D00000ED1C1F38343C9031DF803000AD551680E
:100D100004AAC1F34041515C0A4A5043B0FBF1F0D0
:100D200005B0704708494843FAE70000020304058C
:100D3000060708090A0B0C0D0E0F10100102000027
:100D40000010024000127A0000093D002DE9F84F22
:100D5000040070D02078C04DC00749D06868C0F347
:100D60008100012807D06868C0F38100022809D1FA
:100D70006868C00306D52868800339D560680028F4
:100D8000E7D035E06068B0F5803F0BD010B1B0F52A
:100D9000A02F11D0286820F480302860286820F423
:100DA000802002E0286840F480302860606890B1BC
:100DB000FFF7D8FC06460AE0286840F48020286047
:100DC000F0E700BFFFF7CEFC801B642873D82868CB
:100DD0008003F7D50CE0FFF7C5FC064605E000BF31
:100DE000FFF7C0FC801B6428F0D828688003F7D484
:100DF00020789A4E80074FF001094FF0000839D54E
:100E0000686810F00C0F07D06868C0F381000228F2
:100E100009D16868C00306D42868800714D5206902
:100E2000012808D110E02069B0B1C6F80090FFF7A2
:100E300099FC074605E00AE1FFF794FCC01B022875
:100E4000C4D828688007F7D52868616920F0F800C1
:100E500040EAC10028600DE0C6F80080FFF782FC80
:100E6000074604E0FFF77EFCC01B022823D8286851
:100E70008007F7D4207800072CD57948A169D9B12B
:100E8000C0F80090FFF76EFC074604E0FFF76AFC2D
:100E9000C01B02280FD8686A8007F7D571484FF445
:100EA000FA510068B0FBF1F0009000BF0098411EBD
:100EB0000091FAD20EE080E0C0F80080FFF752FC0B
:100EC000074604E0FFF74EFCC01B022875D8686A8D
:100ED0008007F7D42078400760D5E8690027C00074
:100EE00008D4E86940F08050E861E869012700F023
:100EF000805000905C480168C90513D4016883469E
:100F000041F480710160FFF72DFC824606E000BFCE
:100F1000FFF728FCA0EB0A0064284ED8DBF800009D
:100F2000C005F5D5E06801280AD008B1052813D01E
:100F3000286A20F001002862286A20F0040002E0FC
:100F4000286A40F001002862E06841F2883B98B1CD
:100F5000FFF708FC82460BE0286A40F00400286294
:100F6000EEE700BFFFF7FEFBA0EB0A0159455AD898
:100F7000286A8007F6D50CE0FFF7F4FB824605E00F
:100F8000FFF7F0FBA0EB0A0159454CD8286A80070F
:100F9000F6D41FB1E86920F08050E861E06988B3B9
:100FA0006968C1F38101022944D00228C6F8608033
:100FB00004D0FFF7D7FB044638E034E0FFF7D2FB5C
:100FC000074604E0FFF7CEFBC01B02282BD8286899
:100FD0008001F7D4206AB0F5803F05D16868A16828
:100FE00020F4003008436860D4E9080108436968C8
:100FF00021F4741108436860C6F86090FFF7B2FBF3
:10100000044606E025E000BFFFF7ACFB001B02280A
:1010100009D828688001F7D51BE000BFFFF7A2FBC5
:10102000001B022802D90320BDE8F88F2868800140
:10103000F4D40EE00128F7D06868226A00F4803109
:10104000914204D1616A00F47010884201D00120FD
:10105000EAE70020E8E700000010024000004242FA
:1010600080044242280000200070004010B5401E5D
:10107000B0F1807F01D3012010BD4FF0E02460610A
:101080000F21601700F070FB0020A0610720206195
:10109000002010BD70B590F83C20012A26D0012414
:1010A00080F83C40022280F83D2003685A689D6821
:1010B00022F070060A6832435A600D4B02689A4269
:1010C00008D0B2F1804F05D00A4B9A4202D00A4BA9
:1010D0009A4204D1496825F080031943916080F851
:1010E0003D40002180F83C10084670BD022070BDD4
:1010F000002C0140000400400008004010B504002E
:1011000003D094F83D0010B107E0012010BD00208D
:1011100084F83C00204600F01FF8022084F83D00CF
:10112000211D206800F0B4FA012084F8460084F8FC
:101130003E0084F83F0084F8400084F8410084F8C1
:10114000420084F8430084F8440084F8450084F8A1
:101150003D00002010BD000008B500680649884227
:1011600008D10648816941F400618161806900F419
:101170000060009008BD0000002C014000100240FB
:1011800090F83D10012901D001207047022180F81C
:101190003D1000680B49884208D0B0F1804F05D05F
:1011A0000949884202D00949884204D1816801F086
:1011B0000701062903D0016841F001010160002008
:1011C00070470000002C014000040040000800406F
:1011D00070B5044690F83C00012817D0012584F82A
:1011E0003C50022084F83D002068826822F077029B
:1011F00022F47F4282600868502830D00DDC20281D
:101200004DD005DC98B310283BD148E0022070BDDA
:10121000302844D0402834D139E0602828D07028C4
:1012200006D0B0F5805F2CD0B0F5005F29D10AE080
:10123000CB68D1E90121206800F060FA206881685C
:1012400041F0770109E0CB68D1E90121206800F085
:1012500055FA2068816841F48041816011E0CA68D4
:101260004968206800F05CFA5021206807E016E029
:10127000CA684968206800F064FA6021206800F0BC
:1012800047FA84F83D50002084F83C0070BDCA68DD
:101290004968206800F044FA40212068EFE722689E
:1012A00001461046EBE7FEE701684A69D243520562
:1012B0000FD46FF480624A61002140F8301F202271
:1012C00042738173026942F00402026101730120DA
:1012D0007047002070470000F8B50446C06A1E46FB
:1012E0000D461746082807D0012805D010F5803F85
:1012F00002D0206B122804D12068016841F480716B
:101300000160134600224FF001112046009600F0C4
:1013100057F840B120680068C00502D54FF400704E
:1013200020640320F8BD2069B0F5804F0ED0062060
:10133000216800EAD51040F0F000086133463A46D3
:101340000B49204600F070F878B902E005F0FE0085
:1013500000E0E8B221680861054933463A46891F32
:10136000204600F061F80028DCD00120F8BD000024
:101370000800010070B516460D4604460DE02046F3
:10138000FFF792FF08B1012070BD681C05D0FFF780
:10139000E9F9801BA84207D835B120684069C043ED
:1013A0004007ECD4002070BD002044F8300F20210D
:1013B0006173A073216941F0200121612073E2E78C
:1013C0002DE9F0471E4690460D460446C1F30747F7
:1013D000DDF8209008E0701C06D0FFF7C3F9A0EB01
:1013E0000900B0420FD876B12068012F18D080696B
:1013F00025EA00000004000C14D000214145EAD089
:101400000020BDE8F087002044F8300F20216173F0
:10141000A073216941F02001216120730120F0E7D0
:101420004069E5E70121E9E72DE9F0479A46914651
:101430000E46044600254FF02008C1F3074725E07B
:1014400020684069C043400514D42068016841F415
:101450000071016021686FF480604861256384F841
:101460003D8084F83E50206C40F00400206484F8F5
:101470003C501FE0B9F1FF3F08D0FFF773F9A0EB34
:101480000A0149450CD8B9F1000F09D02068012F95
:1014900013D0806926EA00000004000C0BD0CFE7CF
:1014A00044F8305F84F80D80A573206940F0200077
:1014B000206125730120BDE8F0874069EAE770B537
:1014C00016460D4604460DE02046FFF7EDFE08B136
:1014D000012070BD681C05D0FFF744F9801BA842AD
:1014E00007D835B120684069C0430006ECD400201D
:1014F00070BD002044F8300F20216173A073216972
:1015000041F0200121612073E2E7000070B586B050
:10151000002418480094019402940394816941F0D6
:1015200020018161816901F020010491816941F00C
:1015300004018161816901F004010491816941F034
:101540000801816180690C4E00F008004FF40075BD
:101550000490002229463046FFF7FFF8012000954D
:10156000CDE901040220039069463046FFF700F8F8
:1015700006B070BD00100240000C01400D4810B5CF
:101580000B4901600C49416000214FF480428160A9
:10159000C0E9031241618161C1610162FFF7E8F8AE
:1015A000002803D0BDE81040FEF7CDBF10BD0000FD
:1015B0000054004038000020A086010010B586B01D
:1015C000002417480094019402940394049413494E
:1015D000059401604721C0E901144FF6FF71C0E98D
:1015E000031444618461FFF789FD08B1FEF7ABFF86
:1015F0004FF48050009069460948FFF7E9FD08B1B3
:10160000FEF7A1FF049404A905480594FFF742FDE5
:10161000002801D0FEF797FF06B010BD002C014056
:101620008C000020FEE7FEE770477047FFF728BAFE
:1016300030B58FB028216846FEF7C6FD14210AA8F0
:10164000FEF7C2FD01210804CDE900100024029438
:1016500002250491CDE907504FF4E0100990684647
:10166000FFF774FB08B172B6FEE70F20CDE90A055B
:101670004FF48060CDE90C4002210AA80E94FFF7D8
:1016800089FA002801D072B6FEE70FB030BD70476E
:10169000F0B50268164B174C174D4FF08047984233
:1016A00005D0B84203D0A04201D0A84203D122F015
:1016B00070064A683243984205D0B84203D0A0422F
:1016C00001D0A84203D122F44074CA6822434C6975
:1016D00022F08002224302608A68C2620A68826243
:1016E000984201D10969016301214161F0BD000007
:1016F000002C0140000400400008004010B5846840
:1017000042EA032224F47F440A432243826010BD4C
:10171000826822F070020A4342F00701816070473C
:1017200010B5036A046A24F001040462846924F099
:10173000F00444EA021423F00A020A4384610262BC
:1017400010BD10B5036A23F0100303628369046AB5
:1017500023F4704343EA023224F0A00343EA011168
:101760008261016210BDFEE70907090E002804DB53
:1017700000F1E02080F80014704700F00F0000F145
:10178000E02080F8141D704708B5FFF781F9FFF7D6
:101790004FFFFFF7BBFEFFF7F1FEFFF70FFF3848E3
:1017A000FFF7EEFC0220009010234E223549364808
:1017B000FEF76EFD002211463348FEF7BAFD33A155
:1017C0003148FEF7DBFD012200212F48FEF7B1FD75
:1017D00031A12D48FEF7D2FD314C4FF4FA7900BF0C
:1017E000FEF75CFE002846D0FEF70AFE2070FEF7EA
:1017F00007FE6070FEF704FEA070FEF701FEE070C9
:10180000FEF7FEFD207127786678A578B9194A1988
:10181000E1780A4482422ED1084600F0DFF9DFF871
:1018200084A00022534600F081F800F04DF8804675
:10183000284600F05FFB414600F038FA1A49A060E4
:1018400000F06CFB194900F093FA4FF0844100F06E
:101850002DFAE060304600F0C1F90022534600F056
:1018600065F800F031F80546384600F043FB29469C
:1018700000F01CFA20614846FEF768FEB0E7000061
:101880008C000020380000202C0000204E68696584
:101890007420646F3A200000446F20616D3A20008C
:1018A0000000002000002440000010410000A04083
:1018B000044900220B685A6209684A6A8242FCD3D2
:1018C000704700008C00002021F00042A2F160521D
:1018D000B2F5801F01F0004328BFD2F17F6C0BD915
:1018E0005FEA001C43EAC20242EB507018BF704727
:1018F00028BF20F001007047B2F5801FBCBF18461A
:1019000070474FEA410C1CF5001F02D2084600F058
:10191000CCBB70B500F075F900000089FFF7F6BF89
:101920004FF00040A0F58000704700002DE9C04155
:1019300030B4DFF8A0C23CEA111418BF3CEA13141B
:1019400000F0EC8081EA03051CEA111444EAD57426
:1019500018BF1CEA131500F0C780A4EB05044FF074
:10196000004545EAC12145EAC32341EA505143EA13
:10197000525304F17F74994204F500344FEAC020B9
:101980004FEAC22208BF904200F09C804FEA1365E4
:101990000FF24016765D4FEA134506FB05F7C7F1D7
:1019A000807706FB07F74FEAD737A7FB0368764235
:1019B000C8F58038A7FB06CE38BFA8F1010807FBA1
:1019C00008E64FF0000EA6FB028CE6FB03CEDCF12E
:1019D000000CCEF1004E38BFAEF1010EA6FB0C5844
:1019E0004FF000074FF00005E6FB0E87A1FB08C68D
:1019F000A0FB07CE16EB0E0645F10005E1FB0765DF
:101A000015F1E04E7EBFA4F580345FEA46066D41D5
:101A100016F1800745F100054FEA17274FEA0666E1
:101A200047EA0567A6F1DE46B6F1805F4FEA152565
:101A30001FD9384624F0010C05EBC471BCF1FE6FD0
:101A400001EB0C1102D8F0BCBDE8008124425CBF60
:101A500001F5801E9EEAC47F02D4F0BCBDE800817F
:101A6000244238D4F0BCA1F1C041BDE8004100F0EF
:101A700016B94FEAD22242EA43524FEAD323A7FBD8
:101A800002864FEAD02040EA415007FB03661EEA77
:101A90000E0F4FEAD12105FB026658BFA6EB005698
:101AA000B6EB00564FEA520E4EEAC37E18EB0E0E0E
:101AB00056EB530EBDD518EB02085E417F1C55F165
:101AC0000005B6E74FF480154FF000074FF0000611
:101AD0004FF00008ADE7F0BC4FF0000001F1C0414D
:101AE00001F00041BDE8008111EA0C1F0CEA13155A
:101AF00000D00CE013EA0C1F00F025804FF000002E
:101B0000F0BC81EA030101F00041BDE80081F0BCB6
:101B1000BDE8004181EA030100F0C1B8F0BCBDE8B6
:101B2000004170B500F06DF8097EFC3E00F007B88A
:101B300081EA03014FF0000001F00041704781EAA3
:101B4000030100F0ACB8F0BCBDE800414FF000006C
:101B500021497047FFFDFBF9F7F5F4F2F0EEEDEBEC
:101B6000E9E8E6E4E3E1E0DEDDDBDAD8D7D5D4D39B
:101B7000D1D0CFCDCCCBCAC8C7C6C5C4C2C1C0BFE7
:101B8000BEBDBCBBBAB9B8B7B6B5B4B3B2B1B0AFED
:101B9000AEADACABAAA9A8A8A7A6A5A4A3A3A2A1D1
:101BA000A09F9F9E9D9C9C9B9A999998979796958C
:101BB00095949393929191908F8F8E8E8D8C8C8B28
:101BC0008B8A8989888887878685858484838382B0
:101BD000828181800000FF070000F87FB0FA80F367
:101BE00010FA03F10AD0C3F11D0303F580634FEA35
:101BF00041504FEA035202EBD12170474FF00000F1
:101C000070470EF1020E2EF0030E5EF8046B3642A2
:101C100005D4012A43EB030515F5001F12D801284E
:101C200041EB010C1CF5001F0CD80ED14FEAD17C02
:101C300015F5001F0CEB4C0C0CF1020C08BF4CEB23
:101C4000D37C04E04FF0080C01E04FEAD37C0CEBAE
:101C50004C0526FA05F606F00706B6F1040C06D286
:101C60000EEB860CBDE870404CF0010C6047DFE8DD
:101C70000CF0090B02024FF000414FF00000A1F5FB
:101C8000002170BD19461046012851EB010418BF10
:101C9000D4F5001484BF002001F0004170BD080895
:101CA000A0F500114FEA31017047000090EA010FE2
:101CB00048BF81F0004100F10482421A3CBF801A03
:101CC00089184FEAD0524FF07F4C1CEA410FA2EB2B
:101CD000D15318BF9CEA026F00F03B804FF0004CDC
:101CE0004CEA00204CEA012121FA03FC10EB0C0C19
:101CF0001ED202F1FF325FEA1C2040EBC25038BF17
:101D000070471CF07F0F4FEA400C18BFBCF17F4FAB
:101D100038BF7047C3F12003994008BF20F001008D
:101D2000BCF17F4F38BF7047A0F1C04000F0BDB993
:101D30004FEA3C00000A40EBC25028BF1CF0FF0FE6
:101D40004FEA400CE6D018BFBCF17F4F38BF704758
:101D5000EAE79CEA026F05D010EA5C0F08BF00F0CA
:101D60000040704710B500F05AF900BF64FBBE3E5A
:101D70004FF47F0C1CEAD0121EBF1CEAD11392EA6A
:101D80000C0F93EA0C0F00F0858090EA010F48BF1A
:101D900042F4807240F4000C41F400002CF07F41CA
:101DA00020F07F4000B58142A2EB03020FF2081C35
:101DB000ACEB504EC0F100009EF800E04FEA4E0E32
:101DC00000FB0EFC38BF49004FEA2C1C02F5FA025A
:101DD0000CFB0EF34FEACE1E4FEA112C4FEAC12145
:101DE0000EEB635E42EB22420EFB0CFC4FEA1C53EF
:101DF00000FB03114FEA112C4FEA01310EFB0CFCE2
:101E00004FEADC4C00FB0C11C14228BF09184CEB17
:101E100003335DF804EB10EB410143EBC250B2F524
:101E20007C0F38BF704729D512F0F00F1CBF00F1AE
:101E3000C04000F00040704700818283848586871F
:101E400088898B8C8D8E8F919293959697999A9C79
:101E50009D9FA0A2A3A5A7A8AAACAEB0B2B3B5B7E8
:101E6000B9BCBEC0C2C5C7C9CCCED1D4D7D9DCDFBE
:101E7000E2E6E9ECF0F3F7FAFE0000004FEA400C6E
:101E80000CF1807CBCF17E4F28BF7047B0F1C040A0
:101E900000F00BB990EA010F0CEAD11348BF42F4ED
:101EA0008072624538BF634507D213F47F0F16D0A6
:101EB00080EA010000F00040704710B500F0AFF874
:101EC000097EFC3E00F005B880EA010000F0004009
:101ED000704780EA010000F0004000F0E6B812F41C
:101EE0007F0F04BF0248704780EA010000F0DDB8B0
:101EF0000000C07FB0FA80F310FA03F2C3F19D0333
:101F00000AD0D90501EB1220530638BF704700F103
:101F1000010008BF20F00100704700004FF47F0C63
:101F20001CEAD0121EBF1CEAD11392EA0C0F93EAEE
:101F30000C0F00F0478090EA010F48BF42F4807216
:101F40004FF0004C4CEA00204CEA012102EB030266
:101F5000A0FB0113A2F50002002918BF43F0010302
:101F60005B0028BF4FEA330342EB22425FEA132CA7
:101F70004CEBC2502EBFBCEB436FB2F57C0F7047E9
:101F80004FEA036CBCF1004F08BF20F00100B2F52E
:101F90007C0F38BF70470BD582F0FF0212F5803FEF
:101FA000C8BF704700F1C040D8BF00F00040704784
:101FB00000F5000C5FEA4C0C48BF7047B0F1C04020
:101FC00000F073B890EA010F0CEAD11348BF42F455
:101FD0008072624538BF634504D280EA010000F098
:101FE0000040704710B500F01AF800BF8900013EAC
:101FF00000F007B800F009B85FEA410C5FEA1C6C1A
:1020000008D080EA010000F050B85FEA400C5FEAB7
:102010001C6CF6D14FF00040A0F5800070470EF127
:10202000020E2EF0030E5EF8044B244204D44FEA55
:102030004102B2F17F4F11D84FEA4003B3F17F4F15
:102040000CD80ED14FEAD07CB2F17F4F0CEB4C0C88
:102050000CF1020C08BF4CEBD17C04E04FF0080CF3
:1020600001E04FEAD17C0CEB4C0324FA03F404F0BA
:102070000704B4F1040C06D20EEB840CBDE810404A
:102080004CF0010C6047DFE80CF0070802024FF04B
:102090000040A0F5800010BD0846420018BFD2F1F4
:1020A000807288BF00F0004010BDFF2141EAD0508F
:1020B000C005704790EA010F48BF81F000413FF52D
:1020C000FCAD421A04D882F00042A0EB0200114499
:1020D0004FEAD0524FF07F4C1CEA410FA2EBD15394
:1020E00018BF9CEA026F4AD04FF0004C4CEA002027
:1020F0004CEA012121FA03FCB0EB0C0C0FD412F0D6
:10210000FE0F36D05FEA4C001DD5001240EBC250E6
:1021100038BF70471CF03F0F18BF70470BE0A2F1AB
:1021200001025FEA1C2040EBC25038BF70471CF030
:102130007F0F18BF7047C3F12003994014BF401EA2
:1021400020F00100704780084FEA122308BF704753
:10215000B0FA80FCA2EB0C02CCF1280C60FA0CF077
:1021600093EA122F04BF00EBC25070474FEAC370CE
:102170007047130A5FEADC1008BF7047F6E79CEA75
:10218000026F04D010EA5C0F08BF0020704710B542
:10219000FFF745FF40DFF63E81F00040704700004A
:1021A0000000000000000102030406070809000007
:1021B0000000010203040000D821000800000020F4
:1021C0002C00000028010008042200082C00002038
:1021D0000C0700004401000800000000000000009F
:1021E00000000000000000000000000000000000EF
:1021F00000000000010000001000000000000000CE
:042200000024F400C2
:04000005080000ED02
:00000001FF
