:020000040800F2
:10000000400700205102000853270008E52300089C
:10001000512700083B130008FF28000800000000DB
:10002000000000000000000000000000572700084A
:10003000F91500080000000055270008592700089E
:100040006B0200086B0200086B0200086B020008DC
:100050006B0200086B0200086B0200086B020008CC
:100060006B0200086B0200086B0200086B020008BC
:100070006B0200086B0200086B0200086B020008AC
:100080006B0200086B0200086B0200080000000011
:100090000000000000000000000000006B020008EB
:1000A0006B0200086B0200086B0200086B0200087C
:1000B0006B0200086B0200086B0200086B0200086C
:1000C0006B0200086B0200086B0200086B0200085C
:1000D0006B0200086B0200086B02000800000000C1
:1000E0006B0200086B0200086B02000800000000B1
:1000F0000000000000000000000000006B0200088B
:10010000000000006B0200086B0200086B02000890
:1001100000000000000000000000000000000000DF
:100120006B0200086B0200086B0200086B020008FB
:100130006B0200080000000000000000000000004A
:100140000000000000000000000000006B0200083A
:100150006B0200086B0200086B0200086B020008CB
:100160006B0200086B0200080000000000000000A5
:10017000000000000000000000000000000000007F
:10018000000000006B0200080000000000000000FA
:100190006B0200086B02000800F002F800F049F85A
:1001A0000AA090E8000C82448344AAF10107DA45D2
:1001B00001D100F03EF8AFF2090EBAE80F0013F0DB
:1001C000010F18BFFB1A43F001031847E82E000087
:1001D000082F0000103A24BF78C878C1FAD8520717
:1001E00024BF30C830C144BF04680C6070470000B1
:1001F0000023002400250026103A28BF78C1FBD830
:10020000520728BF30C148BF0B607047662902F013
:10021000F886002070471FB502F0E9FE00F050FBA1
:1002200004000020002102F069FCE0601FBD10B551
:1002300010BD00F045FC1146FFF7EDFF02F088FB12
:1002400000F063FC03B4FFF7F2FF03BC00F0A6FC70
:100250000948804709480047FEE7FEE7FEE7FEE75A
:10026000FEE7FEE7FEE7FEE7FEE7FEE70448054996
:10027000054A064B70470000ED2700089901000869
:1002800040010020400700204003002040030020E0
:1002900053EA020C00F069802DE9F04B4FF00006A4
:1002A000002B1FBFB3FA83F503FA05F424FA05F611
:1002B0005E4012BF1643B2FA82F502FA05F4C5F1A8
:1002C00020051EBF22FA05FC44EA0C04203556EA3C
:1002D000044C4FEA144418BF641C4FF000084FF060
:1002E0000009904271EB030C39D3002919BFB1FA10
:1002F00081F701FA07F6B0FA80F700FA07F6C7F1BE
:1003000020071EBF20FA07FC46EA0C062037B6FB82
:10031000F4FCA7EB0507103F07F01F0BCBF12006FD
:100320000CFA0BFB2CFA06F644BFB3460026202F2E
:10033000A4BF5E464FF0000B5BEA060C08BF4FF00F
:10034000010B19EB0B09ABFB027C48EB0608C01B49
:1003500006FB02CC0BFB03CC71EB0C01C1E70B4697
:10036000024641464846BDE8F08B13B54FF0000009
:100370004FF00001AFF30080BDE81C407047000063
:100380000FB41CB5074B06AA7B446946009005983C
:1003900000F07DFA0020694600F08CFA1CBC5DF884
:1003A00014FB0000290500002DE9F0410E4604462B
:1003B000002020622046E168884730B3252805D018
:1003C000D4E901219047206A401CF2E7E168204609
:1003D00000278847050018D0A5F14100192802D848
:1003E00020354FF400673246294620462760FFF744
:1003F0000DFF40B1012804D0F61D26F0070608368F
:10040000D8E7361DD6E72846DAE7206ABDE8F0814E
:100410004FF0000200B5134694469646203922BF9D
:10042000A0E80C50A0E80C50B1F12001BFF4F7AFE8
:10043000090728BFA0E80C5048BF0CC05DF804EBCA
:10044000890028BF40F8042B08BF704748BF20F838
:10045000022B11F0804F18BF00F8012B7047704736
:100460007047704770472DE9FF4F0C461E464FF00E
:10047000FF378BB0D2E90001DDF860800A908A4630
:10048000C1F30A5505B93D46002108464FF000006A
:10049000BAF1000F00F4400005DA00EB80004FF4E1
:1004A000400101EA50004FEA9059B9F1010F00DD17
:1004B000B9460A9850EA4A000ED044F61050A5F208
:1004C000FF3545432F14B8F1000F1ED07542291E89
:1004D0001EDDC9F100021CE0B8F1010F4FF0000071
:1004E00001D0302103E0F24305E02154401CB0422A
:1004F000FBDB30460022002121540B99C1F8088013
:10050000C1E900200FB0BDE8F08FBD1B6D1CDEE718
:100510004A4600DA694206A800F05CFA06AB93E8A6
:10052000070003AB83E8070050460A9900F03DFB43
:100530008DE80700A0F500501F3800900398002DAB
:100540000ADD42F21F014A460844002303A9039032
:10055000684600F0A6FD09E0A0F500504A461F38A5
:10056000002303A90390684600F0B0FD8DE8070062
:100570000004000C03D04FF0FF30410800E01046AB
:10058000B8F1000F03D00022009215461EE0751E40
:1005900005D400F099F9303262556D1EF9D5B34695
:1005A0000122084302D000227F1C04E0207830287A
:1005B00001D100227F1E002A099784D01DE0112D51
:1005C00007DA00F081F9303262556D1C50EA010201
:1005D000F5D1084302D00098C8B10EE00021681E92
:1005E00005E0235C625C63542254401E491C814236
:1005F000F7DBAB46A81B401E0990002004F80B0057
:100600000B98099AC0F80880C0E9002B7AE71126F8
:100610004FF0000857E72DE9F04F88460446D21DF9
:1006200022F0070191B0D1E90001CDE90A0102F001
:1006300067F902460B98C00F01D02D2007E0206813
:10064000810701D52B2002E0202101EAC000032A06
:10065000099001D0072A05DB03464146204600F0F9
:1006600079F90BE12078800601D5E06900E00620E9
:10067000B8F1650F814606D0B8F1660F18D0B8F111
:10068000670F70D131E00020B9F1110F009001DB4C
:10069000112301E009F101030AAA01A90CA8FFF73F
:1006A000E2FEDDE90C70002609F10105834647E012
:1006B00001204B4600904FF000470AAA01A90CA860
:1006C000FFF7D1FEDDE90DB00C995D46002610B9AB
:1006D00009F101000D18B9EB050003D4C0F1FF3694
:1006E00009F10105A5EB09002BE0B9F1010F01DAD1
:1006F0004FF001090020B9F1110F0090484601DDCB
:10070000112300E003460AAA01A90CA8FFF7ABFEDB
:10071000DDE90C704D4600268346207800070AD498
:10072000AB4500DA5D4601A8012D04DD411911F841
:10073000011C302907D04F4502DA17F1040F04DA03
:10074000012082460FE06D1EEEE7002F02DCED1B5C
:100750003E4403E0781CA84200DD7D1CB81B00F17C
:10076000010A4FF000472078000703D4AA4501DBB7
:100770004FF0FF3A0021B7F1004F0DF143088DF81B
:10078000431024D002202B23002F01DA7F422D2397
:100790000A21021EA0F1010000DC5FB197FBF1FC11
:1007A00097FBF1F201FB1C7C17460CF1300C08F8AA
:1007B00001CDEEE7A8F1010003702188090501D5FC
:1007C000452100E06521A0F1010800F8011C09980D
:1007D0000FA9A1EB0807FF1D00B10120411901EB92
:1007E000EA70A1693844081A401EA0612078C0064A
:1007F00002D42046AFF30080099828B1D4E9012142
:100800009047206A401C20622078C00622D52046EE
:10081000AFF300801EE0002E04DBB34502DD01A82B
:10082000805D00E03020D4E901219047206A401C1F
:100830002062761CAAF101005FEA000A0AD100F0EA
:100840003FF8C0680168405CD4E901219047206A04
:10085000401C2062281EA5F10105DCDC07E0D4E97C
:10086000012118F8010B9047206A401C2062381EB5
:10087000A7F10107F3DC2046AFF30080032011B09D
:1008800041E6000001694A1C02610878704700B522
:100890008FB0CDE901310021059105497944CDE9B9
:1008A000031011466846FFF77FFD0FB000BD000042
:1008B000E5FFFFFF0A6802F8010B0A6070470000BD
:1008C000004870470001002030B5B0F10A024FEA3D
:1008D000900E71F100034EEA817EB0EB0E0061EBE9
:1008E00091014FEA101E4EEA017E10EB0E0041EB23
:1008F00011114FEA102E4EEA016E10EB0E0041EB83
:1009000011214FEA104E4EEA014E10EB0E0041EB62
:100910001141401841F100014FEAD00040EA417016
:100920004FEAD10110EB80054FEA810444EA90744C
:1009300044EB01046D1944EB0404521BA3414FF036
:10094000000348BF0A3200D530BD401C41F1000110
:1009500030BD00002DE9F0411F4604460326016822
:10096000072A01F4006004DB08B116A505E016A50E
:1009700003E008B115A500E015A521F010002060E6
:10098000A069C01EA0610FB1401EA0612046AFF358
:1009900000804FB1D4E9012138469047206A401CBD
:1009A0002062C01C206206E0206AFAE7D4E9012137
:1009B00015F8010B9047761EF8D22046AFF3008061
:1009C000BDE8F0814E414E006E616E00494E46001A
:1009D000696E66002DE9F047814616468AB03548B3
:1009E00078440DC88DE80D0032487844801C03AC73
:1009F0000DC884E80D0041F69B300844372190FB78
:100A0000F1F290FBF1F5A5F1800501FB12041B3C0E
:100A100002D56442012000E00020DFF898A0804663
:100A20000027FA44AAF1BE0A0EE0E0070AD03246D7
:100A3000684607EB470101230AEB810100F046FB02
:100A40008DE8070064107F1C002CEED1194F7F4405
:100A5000AE3F19E0E80715D007EB04100DF1180AB6
:100A600090E80E008AE80E00C068F04201D19819A3
:100A700008903246012306A903A800F027FB03AB28
:100A800083E807006D10641C002DE3D14FF00103D3
:100A900032466946B8F1000F03A802D000F001FB0E
:100AA00001E000F013FBC9E90001C9F808200AB011
:100AB000BDE8F087B826000000487047E00000203D
:100AC0007546FFF7F9FFAE4605006946534620F02C
:100AD0000700854618B020B5FFF7C8FBBDE82040E9
:100AE0004FF000064FF000074FF000084FF0000BEA
:100AF00021F00701AC46ACE8C009ACE8C009ACE89D
:100B0000C009ACE8C0098D46704710B50446AFF384
:100B100000802046BDE81040FFF794BB4FF0013C39
:100B200050F8042B51F8043B9A4221D1A2EB0C035C
:100B3000934313EACC1317D150F8042B51F8043B1C
:100B40009A4215D1A2EB0C03934313EACC130BD1B9
:100B500050F8042B51F8043B9A4209D1A2EB0C0344
:100B6000934313EACC13DBD04FF00000704700BF73
:100B7000D01A01BAB1FA81F101F0180122FA01F09C
:100B8000CB40C1F12001DBB2C0B2C01A2CFA01F394
:100B9000D11A914311EAC311E6D1704701491820D7
:100BA000ABBEFEE72600020070475FEA400C08BFBC
:100BB00091F0000F4FEA8C234FEAC12243EA5151D2
:100BC0004FEA1C5018BF00F5F0404FEA300018BF44
:100BD00041F000415FEA6C5C00F02980BCF1FF3F0E
:100BE00008BF40F080407047130C06BF12044FF05E
:100BF000100C4FF0000C130E04BF12020CF1080C85
:100C0000130F04BF12010CF1040C930F04BF9200E8
:100C10000CF1020CD30F04BF52000CF1010C114671
:100C20004FF00002A0F11F00A0EB0C00704711F084
:100C3000004F08BF704731F000413FF4D5AF0B0CB7
:100C400006BF09044FF0100C4FF0000C0B0E04BF50
:100C500009020CF1080C0B0F04BF09010CF1040C84
:100C60008B0F04BF89000CF1020CCB0F04BF4900AD
:100C70000CF1010CCCF12003A0EB0C0022FA03F3E1
:100C800002FA0CF241EA030100F10100704720F082
:100C90007F4C80EA030023F07F47ACEB070303F5AA
:100CA0007C5300F0004003F1FF032DE980494FEA37
:100CB000154B09B44FEA144325EA0B4E24EA0348C6
:100CC0000FF2042606EB132749083E785FEA32024A
:100CD00003FB0667C7F5000707FB06F64FEA543724
:100CE0004FEAD64606F1020607FB066CCCF1005C23
:100CF0004FEA1C472CEA074C07FB06F40CFB06F5F1
:100D000004EB15464FEA961634BF00204FF0004022
:100D10004FEAD13706FB07FC4FEA1C4C0CFB0BF7E4
:100D2000D21B03FB0CF761EB07010CFB0EF7B0EBDA
:100D3000074072EB17420CFB08F734BFA2EB0742E7
:100D4000B2EB074261EB17414FEA0C444FEA9107BF
:100D500006FB07FC4FEA1C4C0CFB0BF7B0EBC74043
:100D600072EB573203FB0CF734BFA2EBC742B2EB76
:100D7000C74261EB57310CFB0EF7B0EBC70072EBCB
:100D800057720CFB08F734BFA2EBC702B2EBC702E5
:100D900061EB5771039F4FEA816141EA921104EBC5
:100DA000CC044FEAD1374FEA826206FB07FC42EAE5
:100DB00090124FEA80604FEA1C4C0CFB0BF7D21BE1
:100DC00003FB0CF761EB07010CFB0EF7B0EB0740E0
:100DD00072EB17420CFB08F734BFA2EB0742B2EBF1
:100DE000074261EB17414FEA8C554FEA910704EB3C
:100DF0009C2406FB07FC4FEA1C4C0CFB0BF7B0EBEA
:100E0000C74072EB573203FB0CF734BFA2EBC7426B
:100E1000B2EBC74261EB57310CFB0EF7B0EBC700EA
:100E200072EB57720CFB08F734BFA2EBC702B2EBB0
:100E3000C70261EB577115EB4C254FEA816141EA1E
:100E400092114FEA82624FEAD13742EA901206FBD2
:100E500007FC44F100044FEA80604FEA1C4C0CFB95
:100E60000BF7D21B03FB0CF761EB07010CFB0EF732
:100E7000B0EB074072EB17420CFB08F734BFA2EB54
:100E80000742B2EB074261EB174115EB1C154FEA25
:100E9000813141EA92414FEA823242EA90424FEA7E
:100EA00080304FEA0C7644F1000448EA03434EEAEE
:100EB0000B484FF0000EB2EB080C71EB030724BF98
:100EC000624639464EEB0E0E4FF0000B00185241B1
:100ED00049414BEB0B0BB2EB080C71EB03077BF1B9
:100EE000000B24BF624639464EEB0E0E4FF0000B4E
:100EF0000018524149414BEB0B0BB2EB080C71EB64
:100F000003077BF1000B24BF624639464EEB0E0E01
:100F100051EA020718BF46F0010616EB0E7655F1AE
:100F2000000254F1000103D5BDE88901BDE8008845
:100F3000BDE88901BDE80048B619524141EB010105
:100F4000A3F10103704780807F7E7D7C7B7A797876
:100F5000777676757473727171706F6E6E6D6C6C7E
:100F60006B6A6A6968686766666564646363626120
:100F70006160605F5F5E5E5D5D5C5C5B5B5A5A59A1
:100F8000595858575756565555555454535352520D
:100F90005251515050504F4F4F4E4E4D4D4D4C4C65
:100FA0004C4B4B4B4A4A4A494949484848474747AE
:100FB00047464646454545444444444343434342EB
:100FC000424242414141002B9C4630D477002BD015
:100FD0001CB54FEA370703B44FF010004FF0100173
:100FE000BAF1000F06D0BCF1000FDCBF40F00800E2
:100FF00040F008014FF000000FBCBDE810400BF1BD
:10100000010BBBF1010F08BF5FEA170722BF12F106
:10101000010211F101014FF0004143F1000300F022
:10102000004043EA00007047F9D35708D0E746EA8A
:10103000064613F1400F4FEA16461FDD13F1200F4D
:10104000DFBF16430A46002120335B42BED0C3F106
:10105000200746EA064602FA07F74FEA164646EA2E
:101060000706C3F1200722FA03F201FA07F721FA73
:1010700003F14FF0000342EA0702A7E746EA02063F
:1010800046EA06464FEA164646EA0106BCBF46EA6D
:101090000646360C4FF000034FF000024FF00001FF
:1010A00094E72DE9804C9A46934670B491E8380055
:1010B00007C831EA400C48BF34EA430C03D5FFF7B8
:1010C000E6FDFFF780FFF0BCBDE8008C2DE9804C09
:1010D0009A46934670B491E8380007C810F0804FE4
:1010E00008BF13F0804F03D100F005F8FFF76BFF46
:1010F000F0BCBDE8008C20F07F4780EA030023F0BD
:101100007F4C07EB0C03A3F57C5300F00040A3F1E8
:10111000FE0392F0000F00F0B38095F0000F00F096
:1011200077802DE901494FEA11404FEA144621EA40
:10113000004800FB06FC24EA064708FB06F607FB0E
:1011400008F800FB07F718EB06484CEB164C4FEA83
:10115000124B18EB07484FEA15464CEB174022EAB2
:101160000B4E0BFB06FC25EA06470EFB06F607FBBB
:101170000EFE0BFB07F71EEB064E4CEB164C4FF02A
:1011800000061EEB074E4CEB174B18EB0B0840F11B
:10119000000018EB0E0B58EB000840F100008F1A0E
:1011A0004FF000013CBFC943661B14BFB5EB040CF4
:1011B00000213CBFC943F61B4FEA17444EEA8E0E8E
:1011C00027EA04454FEA1C4704FB07622CEA074C58
:1011D00005FB07F70CFB05F604FB0CFC16EB0746BA
:1011E00042EB174216EB0C4642EB1C421BEB060689
:1011F00058EB0202414146EA9E0601D5BDE801894D
:10120000B619524141EB0101A3F10103BDE8018987
:101210004FEA14454FEA114724EA054621EA074CF4
:1012200005FB07F406FB07F70CFB06F105FB0CFCBE
:1012300011EB074144EB17444FEA124711EB0C4105
:1012400044EB1C4422EA074C05FB07F206FB07F7B8
:101250000CFB06F605FB0CFC16EB074642EB1742AF
:1012600016EB0C4642EB1C456A1854F1000148BFCE
:101270007047B619524141EB0101A3F101037047D8
:1012800095F0000F37D04FEA11424FEA144721EA98
:10129000024624EA074C02FB07F106FB07F70CFBAA
:1012A00006F402FB0CFC14EB074441EB17414FEA38
:1012B000154714EB0C4441EB1C4125EA074C02FB9B
:1012C00007F506FB07F70CFB06F602FB0CFC16EB1A
:1012D000074645EB174516EB0C4645EB1C42121929
:1012E00051F1000148BF7047B619524141EB01016D
:1012F000A3F1010370474FEA14454FEA114724EA6E
:10130000054621EA074C05FB07F106FB07F70CFB36
:1013100006F24FF0000605FB0CFC12EB074241EB16
:10132000174112EB0C4251EB1C4148BF7047921819
:1013300041EB0101A3F101037047FEE710B504463C
:101340000298216022716371A0712820A07206208A
:10135000E0710C202072142060720820E0723220AC
:1013600000F04EF900223321204600F069F80022F7
:101370003321204600F064F8052000F041F90022F6
:101380003221204600F05CF8052000F039F90022F7
:101390002021204600F054F8052000F031F9E179D1
:1013A0000022204600F04CF8217A0022204600F06E
:1013B00047F8617A0022204600F042F8A17A002224
:1013C000204600F03DF800220121204600F038F8C8
:1013D00020460022BDE81040022100F031B830B4B0
:1013E000447900238C4201D8641EE1B2847994428E
:1013F00001D8641EE2B232B1012A06D0022A06D018
:10140000032A06D007E00B4605E0403102E0143124
:1014100000E05431CBB230BC43F08001002200F038
:101420000FB8012200F00CB870B50C46054603E079
:101430002846641CFFF7F5FF21780029F8D170BD1C
:101440007CB506460807040EF07A01F0F00518B1E5
:1014500045F0080544F00804012A01D02AB108E04B
:1014600045F0010544F0010403E025F0010524F0F6
:10147000010445F004008DF80400012000F0C0F8DC
:101480008DF8055044F004008DF80600012000F0AE
:10149000B7F84FF47A708DF8074000903179042343
:1014A00001AA306800F082FA7CBD00002DE9F04707
:1014B00000254FF0010A4FF40079DFF88480214CB9
:1014C00000F0AAF9606100F0A7F94F46A06102E0C0
:1014D00000F0A2F9A0613946404600F093F920B926
:1014E000D4E90501801C8842F2D8282001F0FAFADC
:1014F000B94639464746404600F084F90028C5F110
:1015000007010AFA01F019D03043C6B200F084F99D
:10151000C4F8140000F080F9A0614946384600F094
:1015200071F920B1D4E90501801C8842F2D86D1C04
:10153000EDB2082DC4D33046BDE8F0878643E5E719
:1015400000040240000000202DE9F04186B0002692
:1015500014216846FEF75CFF4FF400744FF0010859
:101560000025234FCDE9004803956946384602958A
:1015700000F058F800222146384600F048F91420BF
:1015800000F03EF801222146384600F040F91E20C6
:1015900001F0A8FACDE901586946384600F042F852
:1015A000282001F09FFA2146384600F02BF940B977
:1015B000502001F097FA2146384600F023F900B197
:1015C000012600F029F90B4DC5F8140000F024F9AC
:1015D000A8612146384600F015F920B1D5E905018A
:1015E000801C8842F2D806B03046BDE8F081000089
:1015F0000004024000000020704772B6FEE70000C1
:1016000070B5044600F008F90546601C02D0044895
:101610000078044400F000F9401BA042FAD370BDEA
:10162000280000202DE9F84FDFF8B8A1002201249E
:1016300003254FF00F090AF1040BAAF1040E00BFB5
:101640000B6804FA02F63340B34273D10F7907F006
:101650000307012F01D0022F16D187684FEA4208F5
:1016600005FA08FC27EA0C07D1F80CC00CFA08FCB4
:101670004CEA070CC0F808C04768B7430E79C6F3B8
:10168000001696403E4346600E79F643B6070DD0ED
:10169000C768560005FA06FC27EA0C07D1F808C00F
:1016A0000CFA06FC4CEA070CC0F80CC00E7906F0E8
:1016B0000306022E10D1D60800EB8608D8F8206069
:1016C00057074FEAD76C09FA0CF7BE430F6907FAC0
:1016D0000CF73743C8F8207006684FEA420C05FA49
:1016E0000CF7BE430F7907F0030707FA0CF73743EF
:1016F00007604E6816F4403F6DD03B4E376847F4A4
:1017000080473760366822F0030706F4804600966B
:10171000364E07EB060CDCF8086897073F0F09FA0E
:1017200007F826EA0806DFF8C880404503D14FF0E5
:1017300000081EE04FE0DFF8BC80404502D14FF0CA
:10174000010816E0DFF8B080404502D14FF00208F2
:101750000FE0DFF8A880404502D14FF0030808E011
:10176000DFF89C80404502D14FF0040801E04FF0C3
:10177000070808FA07F848EA0608CCF80888DAF8F3
:1017800000605746D1F804C09E435FEACC2C00D5D8
:101790001E433E60DBF800605F46D1F804C09E4304
:1017A0005FEA8C2C00D51E433E60DEF80060774671
:1017B000D1F804C09E435FEA8C3C00D51E433E60D6
:1017C000084F083F3E68D1F804C09E435FEACC3C16
:1017D00000D51E433E60521C102AFFF431AFBDE815
:1017E000F88F0000083C01404438024000300140BE
:1017F000000002400004024000080240000C0240C9
:10180000001002400069084000D0012070470AB172
:10181000816170470904FBE7014880687047000058
:101820002800002070B5040025D094F83D00002564
:1018300020B984F83C50204600F04EF9242084F86A
:101840003D002068016821F0010101602068016805
:1018500041F4004101602068016821F40041016009
:1018600000F094FA4D4A6168914201D84C4900E079
:101870004C49884201D2012070BD4B492368B0FB1E
:10188000F1F15E6826F03F060E435E6063689342A6
:1018900006D94FF4967359434FF47A73B1FBF3F1C1
:1018A0002368491C1E6A26F03F06314319626168AD
:1018B000914210D84900401EB0FBF1F2521CC2F315
:1018C0000B02042A01D2042022E0B0FBF1F0401CFC
:1018D000C0F30B001CE0A268F2B301EBC10303EB01
:1018E0000116431EB3FBF6F35B1C43F480431B0558
:1018F00049D092B301EBC10202EB0111401EB0FBD3
:10190000F1F0401CC0F30B0040F4804040F4004074
:101910002168CA694CF6FF739A431043C861D4E941
:10192000071001432068026822F0C00211430160E1
:10193000D4E9030101432068826848F2FF339A43E7
:1019400011438160D4E9050108432168CA6822F087
:10195000FF021043C86001E00EE016E02068016855
:1019600041F0010101602564202084F83D002563D9
:1019700084F83E50002070BD01EB4106431EB3FBCE
:10198000F6F35B1CB3E70120C2E701EB4101401E07
:10199000B0FBF1F0401CC0F30B00B7E7A0860100DC
:1019A00080841E0000093D0040420F002DE9F84FE1
:1019B0001F4690468A460446DDF82890FFF72CFF24
:1019C000054694F83D0020287FD119230122404983
:1019D0002046009500F092FD002876D194F83C0056
:1019E000012872D0012084F83C0020680168C907F2
:1019F00003D1016841F0010101602068016821F410
:101A000000610160212084F83D00102084F83E0030
:101A100000262664C4F824806785608D20852D48C3
:101A2000E0622B464A465146204600F0F3FC90B94E
:101A3000206841698069009036E02A464946204680
:101A400000F0DBFD50B1206C042804D1206801684F
:101A500041F4007101600120BDE8F88F606A2168DF
:101A600000780861606A401C6062618D491E618572
:101A7000218D491E89B2218522685369DB435B07AA
:101A80000BD451B100781061606A401C6062608DB7
:101A9000401E6085208D401E20852A4649462046EE
:101AA00000F006FD0028CED1208D0028C5D154F8C5
:101AB0003D0B016841F400710160202004F81E090B
:101AC000E67766770020C7E7FFE70220C4E700005B
:101AD000020010000000FFFF10B586B0044614217C
:101AE0006846FEF795FC13492068884220D11248C9
:101AF0000021026842F002020260006800F0020069
:101B00000590C02000901220CDE901010320039030
:101B10000420049069460948FFF784FD0648103008
:101B2000016841F400110160006800F400100590A4
:101B300006B010BD0054004030380240000402409E
:101B400002488168027811448160704728000020B3
:101B50000B4810B5016841F400710160016841F45F
:101B600080610160016841F480710160032000F030
:101B700061F80F2000F006F800F024F8002010BDF6
:101B8000003C024070B50D4D04464FF47A71287840
:101B9000B1FBF0F00A490968B1FBF0F000F0EEFA91
:101BA00048B9102C07D200222146501E00F022F81E
:101BB00000206C6070BD012070BD00002800002076
:101BC000340000200A4808B5016841F480410160F2
:101BD000006800F4804000900548001F016841F053
:101BE00080510160006800F08050009008BD000046
:101BF00044380240F0B40E4B1B680C46C3F302237A
:101C0000C3F10705042D00D90425191D072901D2A8
:101C1000002300E0DB1E012606FA05F1491E2140E3
:101C200099409E40761E16403143F0BC00F080BEC5
:101C30000CED00E0064900F0070208684FF6FF03CC
:101C4000184040EA0220034A104308607047000031
:101C50000CED00E00000FA052DE9F0470E46050006
:101C600065D0DFF81481D8F80000F7B200F0070063
:101C7000B04207D288F80070D8F8000000F00700E2
:101C8000B04254D128683D4C810712D5400703D596
:101C9000206840F4E05020602878000703D52068D1
:101CA00040F4604020602068A96820F0F0000843FC
:101CB00020602878C0072DD030496868083901288D
:101CC00012D0022813D0032811D0096889070029EF
:101CD0002DDA216821F0030101432160FFF79CFD0B
:101CE000814641F2883A0EE009688903EFE7096806
:101CF0008901ECE7FFF790FDA0EB0901514502D9FE
:101D00000320BDE8F0872068696800F00C00B0EBA4
:101D1000810FEFD1D8F80010404601F00701B14221
:101D200007D90770006800F00700B04201D0012019
:101D3000E7E72878400705D52068E96820F4E050F7
:101D4000084320602878000706D52068296920F418
:101D5000604040EAC100206000F028F82168084A8D
:101D6000C1F30311515CC840064908600648006889
:101D7000FFF708FF0020C4E7003C0240083802409B
:101D800006300008340000202C00002004480549DB
:101D900000680968044AC1F38221515CC840704759
:101DA000340000200838024016300008154810B5ED
:101DB000006810F00C02144813D01449042A0FD004
:101DC000082A0ED10F4C241F2268236802F03F021C
:101DD0005B0207D52068C0F38810A0FB010106E074
:101DE000084610BD2168C1F38811A1FB0001002342
:101DF000FEF74EFA2168C1F30141491C4900B0FBCE
:101E0000F1F010BD083802400024F40040787D0154
:101E10002DE9F84F04006ED02078DFF84C93C0070E
:101E2000A9F104054AD009F104000168C1F3810158
:101E3000012908D00068C0F3810002280AD1D9F82E
:101E40000000400206D52868800337D56068002866
:101E5000E1D033E06068B0F5803F10D0B0F5A02F3E
:101E6000286810D020F480302860286820F4802072
:101E700028606068A8B1FFF7CFFC06460DE028682F
:101E800040F48030F4E740F480202860F7E700BF9A
:101E9000FFF7C2FC801B642873D828688003F7D53D
:101EA0000CE0FFF7B9FC064605E000BFFFF7B4FC05
:101EB000801B6428F0D828688003F7D42078DFF8E6
:101EC000AC8280074FF0000A3ED5A748001D01688C
:101ED00011F00C0F08D00068C0F3810002280BD16C
:101EE000D9F80000400207D42868800716D5E068BA
:101EF000012800D112E033E1E068B8B10120C8F850
:101F00000000FFF789FC064605E000BFFFF784FCF0
:101F1000801B0228C0D828688007F7D52868216967
:101F200020F0F80040EAC10028600DE0C8F800A0E9
:101F3000FFF772FC064604E0FFF76EFC801B0228E8
:101F40001FD828688007F7D42078000722D5864F4D
:101F500087486169703771B101210160FFF75CFC4E
:101F6000064604E0FFF758FC801B022809D83868B1
:101F70008007F7D50EE0C0F800A0FFF74DFC06463D
:101F800005E082E0FFF748FC801B02287DD8386816
:101F90008007F7D42078400768D5DFF8CCB1002758
:101FA0000BF13C0BDBF80000C0000BD4DBF8001099
:101FB00041F08051CBF80010DBF80000012700F061
:101FC000805000906B4E3068C00510D4306840F4EB
:101FD00080703060FFF720FC009005E0FFF71CFCEC
:101FE0000099401A022850D83068C005F6D55E4ED8
:101FF000A0686C3601280FD00528306810D020F07A
:1020000001003060306820F004003060A068B8B192
:10201000FFF702FC00900FE0306840F00100F4E7A9
:1020200040F004003060F7E7FFF7F6FB0099411A33
:1020300041F28830814266D830688007F4D50EE0DE
:10204000FFF7EAFB009007E0FFF7E6FB0099411A73
:1020500041F28830814256D830688007F4D42FB1DD
:10206000DBF8001021F08051CBF80010A069C8B354
:102070003D49091D0968C1F3810102294AD002289E
:10208000504607D0C8F8600000E03CE0FFF7C4FB12
:1020900004463BE04746C8F86000FFF7BDFB064634
:1020A00005E000BFFFF7B8FB801B02282BD828688B
:1020B0008001F7D4D4E907010843A16A2E4A4908F0
:1020C00002EB0141626A41EA8211084394F82C1044
:1020D00040EA0161C9F8001001203866FFF79CFB57
:1020E000044606E03EE000BFFFF796FB001B022817
:1020F00009D828688001F7D534E000BFFFF78CFBD2
:10210000001B022802D90320BDE8F88F286880014F
:10211000F4D427E00128F7D0D9F80000E26900F4F0
:10212000800191421CD1226A00F03F01914217D1F7
:1021300047F6C071626A0140B1EB821F10D1A26AFA
:102140004FF0FF3300F4403103EB5202B1EB024F8A
:1021500006D194F82C1000F07060B0EB016F01D044
:102160000120D1E70020CFE70438024000004742B9
:10217000800E4742007000400000FFFF10B5401E77
:10218000B0F1807F01D3012010BD4FF0E0246061E9
:102190000F21601700F0CCFB0020A0610720206118
:1021A000002010BD70B590F83C20012A2CD00124ED
:1021B00080F83C40022280F83D2003685A689D6800
:1021C00022F070060A6832435A60104B02689A4245
:1021D0000ED0B2F1804F0BD00D4B9A4208D00D4B70
:1021E0009A4205D00C4B9A4202D00C4B9A4204D131
:1021F000496825F080031943916080F83D40002133
:1022000080F83C10084670BD022070BD00000140FF
:102210000004004000080040000C00400040014065
:1022200010B5040003D094F83D0010B107E0012080
:1022300010BD002084F83C00204600F01FF802206A
:1022400084F83D00211D206800F0D8FA012084F8B0
:10225000460084F83E0084F83F0084F8400084F88B
:10226000410084F8420084F8430084F8440084F874
:10227000450084F83D00002010BD000008B500684E
:102280000649884208D10648016841F00101016011
:10229000006800F00100009008BD0000000001404F
:1022A0004438024090F83D10012901D001207047C8
:1022B000022180F83D1000680E4988420ED0B0F12E
:1022C000804F0BD00C49884208D00C49884205D079
:1022D0000B49884202D00B49884204D1816801F041
:1022E0000701062903D0016841F0010101600020C7
:1022F000704700000000014000040040000800405A
:10230000000C00400040014070B5044690F83C00CD
:102310000025012817D0012684F83C60022084F8AB
:102320003D002068826822F0770222F47F428260BA
:102330000868502838D00DDC20284FD005DC90B339
:10234000102811D14AE0022070BD302846D0402824
:102350000AD13BE060282FD070280DD0B0F5805F07
:1023600003D0B0F5005F12D0012584F83D60002055
:1023700084F83C00284670BDCB68D1E90121206873
:1023800000F088FA2068816841F0770109E0CB68A5
:10239000D1E90121206800F07DFA2068816841F4CC
:1023A00080418160E1E719E0CA684968206800F06F
:1023B00083FA5021206806E0CA684968206800F066
:1023C0008CFA6021206800F06FFACEE7CA6849688D
:1023D000206800F071FA40212068F4E72268014685
:1023E0001046F0E7FEE701684A69D24352050FD470
:1023F0006FF480624A61002140F8301F202242734E
:102400008173026942F00402026101730120704786
:1024100000207047F8B50446C06A1E460D461746B0
:10242000082807D0012805D010F5803F02D0206B86
:10243000122804D12068016841F4807101601346BC
:1024400000224FF001112046009600F057F840B1ED
:1024500020680068C00502D54FF400702064032096
:10246000F8BD2069B0F5804F0ED00620216800EA43
:10247000D51040F0F000086133463A460B4920463B
:1024800000F070F878B902E005F0FE0000E0E8B274
:1024900021680861054933463A46891F204600F005
:1024A00061F80028DCD00120F8BD00000800010020
:1024B00070B516460D4604460DE02046FFF793FF23
:1024C00008B1012070BD681C05D0FFF7A5F9801B7D
:1024D000A84207D835B120684069C0434007ECD412
:1024E000002070BD002044F8300F20216173A073DC
:1024F000216941F0200121612073E2E72DE9F047D5
:102500001E4690460D460446C1F30747DDF820906D
:1025100008E0701C06D0FFF77FF9A0EB0900B0427D
:102520000FD876B12068012F18D0806925EA000005
:102530000004000C14D000214145EAD00020BDE881
:10254000F087002044F8300F20216173A0732169C7
:1025500041F02001216120730120F0E74069E5E7A7
:102560000121E9E72DE9F0479A4691460E460446D7
:1025700000254FF02008C1F3074725E02068406997
:10258000C043400514D42068016841F40071016023
:1025900021686FF480604861256384F83D8084F889
:1025A0003E50206C40F00400206484F83C501FE052
:1025B000B9F1FF3F08D0FFF72FF9A0EB0A01494519
:1025C0000CD8B9F1000F09D02068012F13D0806911
:1025D00026EA00000004000C0BD0CFE744F8305F7F
:1025E00084F80D80A573206940F0200020612573D8
:1025F0000120BDE8F0874069EAE770B516460D4650
:1026000004460DE02046FFF7EEFE08B1012070BD44
:10261000681C05D0FFF700F9801BA84207D835B128
:1026200020684069C0430006ECD4002070BD002043
:1026300044F8300F20216173A073216941F020011B
:1026400021612073E2E7000000B587B014216846DD
:10265000FDF7DEFE12480021026842F080020260AF
:10266000026802F080020592026842F001020260F4
:10267000026802F001020592026842F00202026062
:102680000068029100F0020005904FF40070CDE95F
:10269000000169460348FEF7C5FF07B000BD000012
:1026A00030380240000402400D4810B50B4901606B
:1026B0000C49416000214FF480428160C0E903125F
:1026C00041618161C1610162FFF7ACF8002803D06C
:1026D000BDE81040FEF791BF10BD0000005400405F
:1026E00044000020A086010010B586B000241748E1
:1026F0000094019402940394049413490594016096
:102700004721C0E901144FF6FF71C0E90314446189
:102710008461FFF785FD08B1FEF76FFF4FF480502D
:10272000009069460948FFF7EFFD08B1FEF765FF25
:10273000049404A905480594FFF734FD002801D04E
:10274000FEF75BFF06B010BD0000014098000020BE
:10275000FEE7FEE770477047FFF7F2B930B593B078
:1027600030216846FDF754FE14210CA8FDF750FEF9
:102770001C480025016841F080510160006800F0AC
:10278000805011901848016841F440410160006890
:10279000022400F4404011900120009000040190B8
:1027A0008001CDE906400C2008906020CDE90904A5
:1027B00004200B906846FFF72BFB08B172B6FEE7CA
:1027C0000CA90F2081E831004FF48050CDE90F05AE
:1027D00003210CA8FFF740FA002801D072B6FEE7EB
:1027E00013B030BD4038024000700040024801681C
:1027F00041F470010160704788ED00E0F0B50268B7
:102800001D4B1E4C9F031E4D1E4E984207D0B842D2
:1028100005D0A04203D0A84201D0B04204D122F09A
:10282000700C4A6842EA0C02984210D0B8420ED0AE
:10283000A0420CD0A8420AD0B04208D0124CA0420C
:1028400005D0124CA04202D0114CA04203D122F478
:102850004074CA6822434C6922F08002224302601D
:102860008A68C2620A688262984201D1096901637A
:1028700001214161F0BD0000000001400004004062
:1028800000080040000C00400040014000440140AE
:102890000048014010B5846842EA032224F47F44D2
:1028A0000A432243826010BD826822F070020A430C
:1028B00042F007018160704710B5036A046A24F092
:1028C00001040462846924F0F00444EA021423F051
:1028D0000A020A438461026210BD10B5036A23F044
:1028E000100303628369046A23F4704343EA0232EB
:1028F00024F0A00343EA01118261016210BDFEE7EA
:1029000003B401984100009850EAC12018BF042088
:102910004A0D18BF40F0010040F2FF72B2EB515F68
:1029200008BF40F00200012808BF052002B0704730
:102930000907090E002804DB00F1E02080F80014EC
:10294000704700F00F0000F1E02080F8141D704780
:102950002DED028B82B0FFF7FBF8FFF7FFFEFFF7CC
:1029600073FEFFF7A1FEFFF7BFFE5148FFF79AFC89
:102970000220009010234E224E494F48FEF7DEFC05
:10298000002211464C48FEF72AFD4CA14A48FEF7AA
:102990004BFD012200214848FEF721FD4AA146488F
:1029A000FEF742FD4A4C4FF4FA7800BFFEF7CCFD2B
:1029B00000284DD0FEF77AFD2070FEF777FD60709D
:1029C000FEF774FDA070FEF771FDE070FEF76EFD7E
:1029D000207126786778A578F1194A19E1780A44B8
:1029E000824235D1084600F029FA9FED3A8B53EC2C
:1029F000182B00F0CBF800F097F800EE105A00EE1C
:102A0000900AB1EE041AB8EE400A384630EE800A59
:102A1000F2EE020A84ED020A60EE200A80EE810ADC
:102A2000DFED2E0A30EE200A84ED030A00F006FAEC
:102A300053EC182B00F0AAF800F076F800EE106ABC
:102A400000EE900AB8EE400A30EE800A84ED040AE7
:102A500000220A211848FEF7C2FCA06800F056FACE
:102A600041EC100B1A4853EC102B1DA11C30FDF744
:102A700087FC174910481C31FEF7D6FC01220721BC
:102A80000D48FEF7ACFC206900F040FA41EC100B59
:102A90000F4853EC102B12A12130FDF771FC0C49AB
:102AA00005482131FEF7C0FC4046FEF7A9FD7DE751
:102AB0009800002044000020380000204E6869651E
:102AC0007420646F3A200000446F20616D3A20004A
:102AD0000000002000000000000024400000004230
:102AE00025660000044900220B685A6209684A6A98
:102AF0008242FCD3704700009800002010B50029E6
:102B00000AD00878002807D005487844FEF706F870
:102B1000002801D0002010BD0248784410BD0000FC
:102B2000CA050000C205000021F00042A2F1605277
:102B3000B2F5801F01F0004328BFD2F17F6C0BD9A2
:102B40005FEA001C43EAC20242EB507018BF7047B4
:102B500028BF20F001007047B2F5801FBCBF1846A7
:102B600070474FEA410C1CF5001F02D2084600F0E6
:102B700043BA70B500F075F900000089FFF7F6BFA1
:102B80004FF00040A0F58000704700002DE9C041E3
:102B900030B4DFF8A0C23CEA111418BF3CEA1314A9
:102BA00000F0EC8081EA03051CEA111444EAD574B4
:102BB00018BF1CEA131500F0C780A4EB05044FF002
:102BC000004545EAC12145EAC32341EA505143EAA1
:102BD000525304F17F74994204F500344FEAC02047
:102BE0004FEAC22208BF904200F09C804FEA136572
:102BF0000FF24016765D4FEA134506FB05F7C7F165
:102C0000807706FB07F74FEAD737A7FB03687642C2
:102C1000C8F58038A7FB06CE38BFA8F1010807FB2E
:102C200008E64FF0000EA6FB028CE6FB03CEDCF1BB
:102C3000000CCEF1004E38BFAEF1010EA6FB0C58D1
:102C40004FF000074FF00005E6FB0E87A1FB08C61A
:102C5000A0FB07CE16EB0E0645F10005E1FB07656C
:102C600015F1E04E7EBFA4F580345FEA46066D4163
:102C700016F1800745F100054FEA17274FEA06666F
:102C800047EA0567A6F1DE46B6F1805F4FEA1525F3
:102C90001FD9384624F0010C05EBC471BCF1FE6F5E
:102CA00001EB0C1102D8F0BCBDE8008124425CBFEE
:102CB00001F5801E9EEAC47F02D4F0BCBDE800810D
:102CC000244238D4F0BCA1F1C041BDE8004100F07D
:102CD00016B94FEAD22242EA43524FEAD323A7FB66
:102CE00002864FEAD02040EA415007FB03661EEA05
:102CF0000E0F4FEAD12105FB026658BFA6EB005626
:102D0000B6EB00564FEA520E4EEAC37E18EB0E0E9B
:102D100056EB530EBDD518EB02085E417F1C55F1F2
:102D20000005B6E74FF480154FF000074FF000069E
:102D30004FF00008ADE7F0BC4FF0000001F1C041DA
:102D400001F00041BDE8008111EA0C1F0CEA1315E7
:102D500000D00CE013EA0C1F00F025804FF00000BB
:102D6000F0BC81EA030101F00041BDE80081F0BC44
:102D7000BDE8004181EA030100F0C1B8F0BCBDE844
:102D8000004170B500F06DF8097EFC3E00F007B818
:102D900081EA03014FF0000001F00041704781EA31
:102DA000030100F0ACB8F0BCBDE800414FF00000FA
:102DB00021497047FFFDFBF9F7F5F4F2F0EEEDEB7A
:102DC000E9E8E6E4E3E1E0DEDDDBDAD8D7D5D4D329
:102DD000D1D0CFCDCCCBCAC8C7C6C5C4C2C1C0BF75
:102DE000BEBDBCBBBAB9B8B7B6B5B4B3B2B1B0AF7B
:102DF000AEADACABAAA9A8A8A7A6A5A4A3A3A2A15F
:102E0000A09F9F9E9D9C9C9B9A9999989797969519
:102E100095949393929191908F8F8E8E8D8C8C8BB5
:102E20008B8A89898888878786858584848383823D
:102E3000828181800000FF070000F87FB0FA80F3F4
:102E400010FA03F10AD0C3F11D0303F580634FEAC2
:102E500041504FEA035202EBD12170474FF000007E
:102E600070470EF1020E2EF0030E5EF8046B364230
:102E700005D4012A43EB030515F5001F12D80128DC
:102E800041EB010C1CF5001F0CD80ED14FEAD17C90
:102E900015F5001F0CEB4C0C0CF1020C08BF4CEBB1
:102EA000D37C04E04FF0080C01E04FEAD37C0CEB3C
:102EB0004C0526FA05F606F00706B6F1040C06D214
:102EC0000EEB860CBDE870404CF0010C6047DFE86B
:102ED0000CF0090B02024FF000414FF00000A1F589
:102EE000002170BD19461046012851EB010418BF9E
:102EF000D4F5001484BF002001F0004170BD080823
:102F0000A0F500114FEA31017047000043004FEA7D
:102F1000D30C4FEA3C0C43401FBF40070CF16051FB
:102F200013F0FE4F70471CF0006F03D100200CF02F
:102F3000004170470CF0004343EA507010B540EA7E
:102F4000CC0000F00EF800BF000000924FEA000134
:102F5000FFF7D5BF4FF000414FF00000A1F5002171
:102F600070470EF1020E2EF0030E5EF8044B244261
:102F700004D44FEA4102B2F17F4F11D84FEA400327
:102F8000B3F17F4F0CD80ED14FEAD07CB2F17F4F16
:102F90000CEB4C0C0CF1020C08BF4CEBD17C04E0A8
:102FA0004FF0080C01E04FEAD17C0CEB4C0324FA03
:102FB00003F404F00704B4F1040C06D20EEB840C05
:102FC000BDE810404CF0010C6047DFE80CF007084A
:102FD00002024FF00040A0F5800010BD08464200FC
:102FE00018BFD2F1807288BF00F0004010BD4FF0D2
:102FF0004070E1EE100A7047FF2141EAD050C00551
:103000007047FDF708BB000000000000000001024F
:103010000304060708090000000001020304000081
:1030200002400000000000A0000000000540000079
:10303000000000C8000000000C4000000000409CA0
:1030400000000000194000000020BCBE000000008D
:1030500034400000BFC91B8E00000004B5400000D2
:10306000504BCFD06607E2CF010000006C4100005A
:103070003E8251AADFEEA73401000000D9420000D1
:10308000DCB5A0E23A301F97FFFFFFFFB445000018
:10309000FD25A0C8E9A3C14FFFFFFFFFFF3F0000D0
:1030A0000000008000000000FF3F000000000080E2
:1030B00000000000F0300008000000203800000090
:1030C000D40100082831000838000020080700005B
:1030D000F00100081C00000043000000F8FFFFFFA3
:1030E0000C0000000E0000000F0000002E00000089
:1030F00000000000000000000000000000000000D0
:1031000000000000000000000000000000000000BF
:10311000000000000000000001000000100000009E
:08312000000000000024F4008F
:040000050800019955
:00000001FF
